:1000000002002B20EB057BB202000D7B597AFA79B6
:10001000FAD9FE120039DAF7DBF3227B127AFA7989
:10002000FAD9FE120039DAF7DBF32275817F75E821
:1000300000759500113902002B30FB0122A8E8025F
:100040000042B8000302006FB80103020087B80243
:100050000302009FB803030200D6B8040302010D97
:10006000B80503020140B8060302017F0201CA7508
:100070008F00758E24759412759379759219759108
:100080007812003902006F758FFF758EFF7594FF2F
:100090007593FF759278759110120039020087757B
:1000A0008F00758E247594127593797592197591D8
:1000B000781200397C787410120003AD8F858E8F12
:1000C00085948E8593948592938591928C9112005C
:1000D00039FCED0200B8758F00758E247594127589
:1000E00093797592197591781200397C1074781291
:1000F0000003AD91859291859392859493858E941A
:10010000858F8E8C8F120039FCED0200EF758F12F7
:10011000758E79759419759378759278759110121A
:100120000039120003758FFF758EFF7594FF75936C
:10013000FF7592FF7591FF12003912000302010D45
:10014000120003758FFF758EFF7594FF7593FF7511
:1001500092FF7591FF120039120003758F00120093
:1001600003758E241200037594121200037593799F
:100170001200037592191200037591780201401262
:100180000003758FFF758E097594067593477592F8
:1001900047759140120039120003758F00758E2447
:1001A00075941275937975921975917812003912B8
:1001B0000003758F46758E0C759448759330759253
:1001C0007975912412003902017F120003758FFFA7
:1001D000758EFF7594FF7593FF7592FF7591FF12F1
:1001E000003912001B758F7812001B758FFF758EFA
:1001F0007812001B758EFF75947812001B7594FFA2
:1002000075937812001B7593FF75927812001B7519
:1002100092FF75917812001B758F1912001B758F54
:10022000FF758E1912001B758EFF75941912001B35
:100230007594FF75931912001B7593FF759219122F
:10024000001B75967912001B7596FF758F79120049
:100250001B758FFF758E7912001B758EFF75947953
:1002600012001B7594FF75937912001B759612127C
:10027000001B7596FF758F1212001B758FFF758E10
:100280001212001B758EFF75941212001B758F24BD
:1002900012001B758FFF758E2412001B758F0012C4
:1002A0000003758F00758E2475941275937975927D
:1002B00019759178120039120003758FFF758EFF42
:1002C0007594FF7593FF7592FF7591FF12003912B7
:1002D0000003758F00758E2475941275937975924D
:0A02E000197591781200390201CA65
:00000001FF
